:100000000C9440000C9468000C9468000C946800F8
:100010000C94E2000C9468000C9468000C94680046
:100020000C9468000C9468000C9468000C946800B0
:100030000C9468000C9468000C9468000C946800A0
:100040000C9468000C9468000C9468000C94680090
:100050000C9468000C9468000C9468000C94680080
:100060000C9468000C9468000C9468000C94680070
:100070000C9468000C9468000C9468006A04720484
:1000800011241FBECFEFD8E0DEBFCDBF11E0A0E04E
:10009000B1E0E0E4F4E102C005900D92A033B107B5
:1000A000D9F721E0A0E3B1E001C01D92AB35B20762
:1000B000E1F710E0CFE3D0E004C02197FE010E94F9
:1000C0000206CE33D107C9F70E941C040C94130A10
:1000D0000C940000CF92DF92EF92FF926B017C01B3
:1000E00020E030E040E85FE30E94760487FD17C01F
:1000F00020E030E040E85FE3C701B6010E9434052C
:1001000087FD10C020E030E040E450E4C701B601B4
:100110000E94760487FF06C08BE091E005C086E070
:1001200091E002C080E191E0FF90EF90DF90CF90EE
:100130000895CF92DF92EF92FF921F93CF93DF93B8
:100140006B017C01EA010E947B04862F1AE0612F7B
:100150000E94CE05905D98838EE2898320E030E096
:1001600040E251E4C701B6010E9439050E947B04B8
:10017000862F612F0E94CE05905D9A83DF91CF91EB
:100180001F91FF90EF90DF90CF900895F8948FEF3C
:1001900084B998EF91B987B987EF8AB98DB3836035
:1001A0008DBBE9E6F0E080818D608083E8E6F0E0D9
:1001B000808181608083EBE6F0E0808187608083CE
:1001C000789408951F920F920FB60F9211248F9377
:1001D0009F93009B04C085B5856085BD08C085B52B
:1001E00085BD86B590E0909356018093550116BC6D
:1001F0008BB38BBB9F918F910F900FBE0F901F9071
:100200001895CF93DF93EC01CB01188219821A82E3
:100210001B825D834C8318861986BA010E94C30332
:100220004C815D8160E081E00E947B0380E190E091
:100230000E9408069F838E83DF91CF910895FC0171
:10024000868197810C94A0061F93CF93DF93EC01D6
:10025000162F2C813D81462F6B8181E00E94830304
:100260001A83DF91CF911F9108951F93CF93DF934E
:10027000EC01162F2C813D814A8181E00E9483038D
:100280001B83DF91CF911F910895FC01862F60326F
:1002900040F4618364817581803108F0805D0C9445
:1002A000B6030895CF93DF93EC018C819D810E946A
:1002B0006F0318826981CE01DF91CF910C944501C3
:1002C0006F927F928F929F92AF92BF92CF92DF9266
:1002D000EF92FF920F931F93CF93DF9361157105F8
:1002E00009F476C0E22EF42E8B01EC01CB010E94C2
:1002F000E0026C017A808B8060E0CE010E942401D4
:1003000060E0CE010E943501EE2019F0CE010E947E
:1003100052012FE12F1508F45BC04F2D50E0C601AC
:10032000992720E230E0241B350B281739070CF4FD
:100330004FC09C2C6C817D81EFE0EF1548F1840F5C
:10034000951F409724F080E1E82EEF1801C0EC2CB7
:100350008F2D0E94B603602E58016C817D818A2DFD
:1003600086198E1530F4F50181915F010E94BD035D
:10037000F4CF80E40E94B603E914E0F46C817D813F
:10038000F801EE0DF11D80810E94BD03E394F4CFCE
:1003900080E38F0D0E94B603E02E58018A2D8E193E
:1003A000891540F46C817D81F50181915F010E9486
:1003B000BD03F4CF6981CE010E944501672DCE01B6
:1003C0000E942401682DCE010E943501FC0CF882A8
:1003D000DF91CF911F910F91FF90EF90DF90CF9021
:1003E000BF90AF909F908F907F906F900895EF9205
:1003F000FF920F931F93CF93DF938C016830D0F45B
:1004000041155105B9F0EA01862FF8016481758123
:10041000880F880F880F0E94AE037E01F8E0EF0E70
:10042000F11CF8016481758189910E94BD03CE158C
:10043000DF05B9F7DF91CF911F910F91FF90EF90FA
:100440000895CF93DF93EC016115710521F020E051
:1004500048810E946001CE01DF91CF9108950F93F2
:100460001F93CF93DF9300D0CDB7DEB78C011A82F4
:1004700019826983BE016F5F7F4F0E942102C8010C
:100480000F900F90DF91CF911F910F910895CF930F
:10049000DF93EC017F936F9385E191E09F938F93BE
:1004A0008F818F938E818F930E9429076E817F8128
:1004B000CE010E9421020F900F900F900F900F908D
:1004C0000F90CE01DF91CF910895CF93DF93EC0190
:1004D0007F936F9388E191E09F938F938F818F93A8
:1004E0008E818F930E9429076E817F81CE010E94A9
:1004F00021020F900F900F900F900F900F90CE0150
:10050000DF91CF910895CF93DF93EC011F926F930A
:100510008BE191E09F938F938F818F938E818F9347
:100520000E9429076E817F81CE010E9421020F90D7
:100530000F900F900F900F900F90CE01DF91CF9101
:1005400008950F931F93CF93DF93EC018B016115F7
:10055000710561F0288581E028274985CE010E9438
:1005600060018885882311F018861986C801DF91FB
:10057000CF911F910F910895603220F4FC016187A3
:1005800021E0208708950F931F93CF93DF93EC0111
:100590008881082F681708F4062F801B888310E0D5
:1005A000101731F060E2CE010E942F021F5FF8CFDA
:1005B0008881811B8883DF91CF911F910F910895CE
:1005C000FC0131969F01281B390B41914111FACF53
:1005D000C90108950F931F93CF93DF93FC01CB01C3
:1005E0001786009739F08F01015F1F4F2EE0C42F4F
:1005F000D0E007C080E38687CF010E9615C0222386
:1006000071F0BE010E94DA05DC01A25EBE4F8C9142
:10061000D8018E938D012150CB01009781F7822F55
:1006200090E001968E0F9F1FDF91CF911F910F9148
:10063000089520E030E02817390749F0E9EFF0E0AD
:100640003197F1F700C000002F5F3F4FF4CF0895BE
:10065000FC0180818062808384E08A95F1F780814B
:100660008F7D80830895EF92FF920F931F93CF9316
:10067000DF93162F042FE90190E8899F7001112460
:100680008881817288832881862F90E034E0959557
:1006900087953A95E1F7880F991F8E29822B8883D9
:1006A000CE010E94280388818172888388811F700F
:1006B000110F1E29182B1883CE010E94280380E0F9
:1006C000801731F093E09A95F1F700008F5FF8CF33
:1006D000DF91CF911F910F91FF90EF9008959C01B2
:1006E00044EA61E080E00C9433039C0144EA62E058
:1006F00080E00C9433039A01880F6460682B44E017
:1007000080E00C943303660F4860462B54E0859FCD
:10071000C0011124642F682B44E080E00C94330363
:100720009A0144E0649FB0011124606148E0849F15
:10073000C0011124682B44E080E00C9433039A013B
:1007400048E0649FB0011124606240E1849FC001D1
:100750001124682B44E080E00C9433039B018F77D5
:10076000682F606444E080E00C9433039B01682FA1
:10077000606844E080E00C9433039B0144E0682F00
:1007800081E00C943303CF93DF93FC01EB0185EA06
:100790009EE00197F1F700C00000808181728083A4
:1007A00080818FEF808388818172888388818660D1
:1007B000888388818E7F8883CB010E94280380E014
:1007C00094E00197F1F700C00000CE010E942803D9
:1007D00091E29A95F1F70000CE010E9428038DE086
:1007E0008A95F1F70000888181728883888184600E
:1007F0008883CE010E9428039DE09A95F1F70000BE
:100800009E0144E06CE280E00E9433039E0140E0E0
:1008100060E080E00E948303CE010E946F03AE017E
:1008200060E081E00E947B039E0140E060E081E0A7
:10083000DF91CF910C9483030E94C600CAE3D0E0FD
:1008400080916B00816080936B00289A8AE18A9581
:10085000F1F700C028980099FECF80915501909142
:100860005601BE010E94EE05072E000C880B990B65
:100870000E94AC0460935101709352018093530124
:1008800090935401609151017091520180915301F4
:10089000909154014CE451E00E94990020E040E026
:1008A0006CE471E080E391E00E946001609151018D
:1008B0007091520180915301909154010E946A00FD
:1008C0008C0160E180E391E00E94BC02B8010E94CB
:1008D000A102B6CF45E250E064E270E080E391E02F
:1008E0000C94010180E391E00C941F010E94E70445
:1008F00008F481E008950E94130588F09F5798F04E
:10090000B92F9927B751B0F0E1F0660F771F881F14
:10091000991F1AF0BA95C9F714C0B13091F00E942E
:100920002D05B1E008950C942D05672F782F8827A9
:10093000B85F39F0B93FCCF3869577956795B39555
:10094000D9F73EF490958095709561957F4F8F4FC4
:100950009F4F0895E89409C097FB3EF490958095C9
:10096000709561957F4F8F4F9F4F9923A9F0F92F75
:1009700096E9BB279395F695879577956795B795F3
:10098000F111F8CFFAF4BB0F11F460FF1BC06F5FD9
:100990007F4F8F4F9F4F16C0882311F096E911C0EB
:1009A000772321F09EE8872F762F05C0662371F00C
:1009B00096E8862F70E060E02AF09A95660F771F20
:1009C000881FDAF7880F9695879597F90895990FFC
:1009D0000008550FAA0BE0E8FEEF16161706E80709
:1009E000F907C0F012161306E407F50798F0621B2A
:1009F000730B840B950B39F40A2661F0232B242BFF
:100A0000252B21F408950A2609F4A140A6958FEF1D
:100A1000811D811D089557FD9058440F551F59F0B1
:100A20005F3F71F04795880F97FB991F61F09F3FDB
:100A300079F087950895121613061406551FF2CF04
:100A40004695F1DF08C0161617061806991FF1CF54
:100A500086957105610508940895E894BB2766277B
:100A60007727CB0197F908950E94E70408F48FEFE8
:100A700008950E944C050C94BD050E94AF0538F006
:100A80000E94B60520F0952311F00C94A6050C9455
:100A9000AC0511240C942E050E940B0570F3959F54
:100AA000C1F3950F50E0551F629FF001729FBB2765
:100AB000F00DB11D639FAA27F00DB11DAA1F649F01
:100AC0006627B00DA11D661F829F2227B00DA11DB4
:100AD000621F739FB00DA11D621F839FA00D611D3A
:100AE000221F749F3327A00D611D231F849F600D5B
:100AF000211D822F762F6A2F11249F5750409AF084
:100B0000F1F088234AF0EE0FFF1FBB1F661F771F0F
:100B1000881F91505040A9F79E3F510580F00C94DA
:100B2000A6050C942E055F3FE4F3983ED4F386951A
:100B300077956795B795F795E7959F5FC1F7FE2B7A
:100B4000880F911D9695879597F9089597F99F6756
:100B500080E870E060E008959FEF80EC0895002445
:100B60000A941616170618060906089500240A9412
:100B700012161306140605060895092E0394000C98
:100B800011F4882352F0BB0F40F4BF2B11F460FF27
:100B900004C06F5F7F4F8F4F9F4F0895991B79E07F
:100BA00004C0991F961708F0961B881F7A95C9F7FD
:100BB00080950895AA1BBB1B51E107C0AA1FBB1F4C
:100BC000A617B70710F0A61BB70B881F991F5A95D9
:100BD000A9F780959095BC01CD01089597FB072E4C
:100BE00016F4009407D077FD09D00E94DA0507FCBF
:100BF00005D03EF4909581959F4F0895709561952D
:100C00007F4F0895EE0FFF1F0590F491E02D09949A
:100C10000F931F93CF93DF938230910510F482E0FE
:100C200090E0E0915901F0915A0120E030E0A0E01D
:100C3000B0E0309719F1408151810281138148174A
:100C40005907C8F08417950769F4109731F0129688
:100C50000C93129713961C9327C00093590110937D
:100C60005A0122C02115310519F04217530718F413
:100C70009A01BD01EF01DF01F801DBCF211531053C
:100C8000F9F0281B390B2430310580F48A819B81CF
:100C90006115710521F0FB019383828304C0909359
:100CA0005A0180935901FE01329644C0FE01E20FC1
:100CB000F31F8193919322503109398328833AC0DD
:100CC0002091570130915801232B41F420910201CA
:100CD0003091030130935801209357012091000176
:100CE000309101012115310541F42DB73EB74091F6
:100CF000040150910501241B350BE0915701F0913F
:100D00005801E217F307A0F42E1B3F0B28173907F1
:100D100078F0AC014E5F5F4F2417350748F04E0F57
:100D20005F1F50935801409357018193919302C0E4
:100D3000E0E0F0E0CF01DF91CF911F910F91089596
:100D4000CF93DF93009709F481C0FC01329713829F
:100D50001282A0915901B0915A01109781F420811B
:100D60003181820F931F209157013091580128172C
:100D7000390751F5F0935801E093570167C0ED0131
:100D800020E030E0CE17DF0740F44A815B819E010E
:100D900041155105F1F0EA01F5CFD383C2834081BB
:100DA0005181840F951FC817D90759F488819981FB
:100DB000840F951F0296918380838A819B81938300
:100DC00082832115310529F4F0935A01E0935901EA
:100DD0003DC0E901FB83EA8349915991C40FD51FB6
:100DE000EC17FD0761F480819181840F951F0296B5
:100DF000E90199838883828193819B838A83E0E0E0
:100E0000F0E012968D919C911397009719F0FD01D7
:100E1000DC01F7CF8D919C9111979D012E5F3F4F83
:100E2000820F931F209157013091580128173907DD
:100E300069F4309729F410925A011092590102C0B6
:100E400013821282B0935801A0935701DF91CF9182
:100E50000895AEE0B0E0EFE2F7E00C94EA090D8906
:100E60001E8986E08C831A8309838FEF9FE79E8318
:100E70008D83AE01475E5F4F6F89788DCE010196FD
:100E80000E944B07EF81F885E00FF11F10822E962C
:100E9000E4E00C94060AABE0B0E0E1E5F7E00C9486
:100EA000DC096C017B018A01FC01178216828381B7
:100EB00081FFCCC1CE0101963C01F6019381F7017F
:100EC00093FD859193FF81917F01882309F4BAC135
:100ED000853239F493FD859193FF81917F018532AD
:100EE00029F4B60190E00E944209E7CF912C212C11
:100EF000312CFFE1F315D8F08B3279F038F48032E1
:100F000079F08332A1F4232D20611DC08D3261F070
:100F1000803369F4232D216016C0832D8260382E22
:100F2000E32DE4603E2E2AC0F32DF8601DC037FC8F
:100F30002DC020ED280F2A3040F08E32B9F436FC57
:100F400081C1232D2064322E19C036FE06C08AE0EE
:100F5000989E200D1124922E11C0EAE02E9E200DA5
:100F60001124222EF32DF0623F2E08C08C3621F47E
:100F7000832D8068382E02C0883641F4F70193FD36
:100F8000859193FF81917F018111B3CF982F9F7D30
:100F90009554933028F40C5F1F4F9FE399830DC045
:100FA000833631F0833771F0833509F059C021C0A1
:100FB000F801808189830E5F1F4F88248394912CD0
:100FC000530113C02801F2E04F0E511CF801A0801C
:100FD000B18036FE03C0692D70E002C06FEF7FEF75
:100FE000C5010E9437094C018201F32DFF773F2E86
:100FF00016C0280122E0420E511CF801A080B180E9
:1010000036FE03C0692D70E002C06FEF7FEFC501AF
:101010000E942C094C01F32DF0683F2E820133FC15
:101020001BC0822D90E088169906B0F4B60180E2CC
:1010300090E00E9442092A94F4CFF50137FC859193
:1010400037FE81915F01B60190E00E9442092110B4
:101050002A9421E0821A91088114910471F7E8C062
:10106000843611F0893641F5F80137FE07C06081FA
:101070007181828193810C5F1F4F08C060817181F3
:10108000072E000C880B990B0E5F1F4FF32DFF7678
:101090003F2E97FF09C090958095709561957F4F81
:1010A0008F4F9F4FF0683F2E2AE030E0A3010E944F
:1010B0007E09882E861845C0853731F4232D2F7E72
:1010C000B22E2AE030E025C0932D997FB92E8F36BD
:1010D000C1F018F4883579F0B5C0803719F0883739
:1010E00021F0B0C0E92FE061BE2EB4FE0DC0FB2D93
:1010F000F460BF2E09C034FE0AC0292F2660B22E2C
:1011000006C028E030E005C020E130E002C020E168
:1011100032E0F801B7FE07C060817181828193815E
:101120000C5F1F4F06C06081718180E090E00E5F10
:101130001F4FA3010E947E09882E8618FB2DFF7782
:101140003F2E36FE0DC0232D2E7FA22E891458F47B
:1011500034FE0BC032FC09C0832D8E7EA82E05C044
:10116000B82CA32C03C0B82C01C0B92CA4FE0FC00E
:10117000FE01E80DF11D8081803321F49A2D997EC6
:10118000A92E09C0A2FE06C0B394B39404C08A2D50
:10119000867809F0B394A3FC11C0A0FE06C0B21477
:1011A00088F4280C922C9B180EC0B21460F4B6017F
:1011B00080E290E00E944209B394F7CFB21418F491
:1011C0002B1802C0982C212CA4FE10C0B60180E37D
:1011D00090E00E944209A2FE17C0A1FC03C088E76C
:1011E00090E002C088E590E0B6010CC08A2D8678B8
:1011F00059F0A1FE02C08BE201C080E2A7FC8DE2A3
:10120000B60190E00E944209891438F4B60180E3E7
:1012100090E00E9442099A94F7CF8A94F301E80D76
:10122000F11D8081B60190E00E9442098110F5CF46
:10123000222009F442CEB60180E290E00E944209E9
:101240002A94F6CFF6018681978102C08FEF9FEF37
:101250002B96E2E10C94F809FC0105906150704076
:101260000110D8F7809590958E0F9F1F0895FC016F
:101270006150704001900110D8F7809590958E0FC5
:101280009F1F08950F931F93CF93DF93FB0123813B
:1012900021FD03C08FEF9FEF2CC022FF16C04681B7
:1012A0005781248135814217530744F4A081B181CD
:1012B0009D012F5F3F4F318320838C93268137819F
:1012C0002F5F3F4F3783268314C08B01EC01FB0156
:1012D0000084F185E02D0995892BE1F6D801169659
:1012E0008D919C911797019617969C938E931697C4
:1012F000CE01DF91CF911F910F910895FA01AA2796
:10130000283051F1203181F1E8946F936E7F6E5F48
:101310007F4F8F4F9F4FAF4FB1E03ED0B4E03CD0F6
:10132000670F781F891F9A1FA11D680F791F8A1FD9
:10133000911DA11D6A0F711D811D911DA11D20D040
:1013400009F468943F912AE0269F11243019305DFA
:101350003193DEF6CF010895462F4770405D4193EB
:10136000B3E00FD0C9F7F6CF462F4F70405D4A3338
:1013700018F0495D31FD4052419302D0A9F7EACF00
:10138000B4E0A6959795879577956795BA95C9F72F
:1013900000976105710508959B01AC010A2E069422
:1013A0005795479537952795BA95C9F7620F731FDB
:1013B000841F951FA01D08952F923F924F925F9218
:1013C0006F927F928F929F92AF92BF92CF92DF9255
:1013D000EF92FF920F931F93CF93DF93CDB7DEB7BA
:1013E000CA1BDB0B0FB6F894DEBF0FBECDBF09944E
:1013F0002A88398848885F846E847D848C849B84A5
:10140000AA84B984C884DF80EE80FD800C811B81B2
:10141000AA81B981CE0FD11D0FB6F894DEBF0FBEE1
:10142000CDBFED01089510E0CFE3D0E004C0FE0190
:101430000E9402062196C034D107C9F7F894FFCF65
:1014400000005B012000444E4752004154544E00BE
:10145000204F4B20002575002569002563003031A1
:10146000323334353637383961626364656600007B
:00000001FF
