:100000000C9440000C9468000C9468000C946800F8
:100010000C94E2000C9468000C9468000C94680046
:100020000C9468000C9468000C9468000C946800B0
:100030000C9468000C9468000C9468000C946800A0
:100040000C9468000C9468000C9468000C94680090
:100050000C9468000C9468000C9468000C94680080
:100060000C9468000C9468000C9468000C94680070
:100070000C9468000C9468000C94680085048D044E
:1000800011241FBECFEFD8E0DEBFCDBF11E0A0E04E
:10009000B1E0E2E3F5E102C005900D92A033B107B3
:1000A000D9F721E0A0E3B1E001C01D92AD35B20760
:1000B000E1F710E0CFE3D0E004C02197FE010E94F9
:1000C0007B06CE33D107C9F70E9438040C948C0A02
:1000D0000C940000CF92DF92EF92FF926B017C01B3
:1000E00020E030E040E85FE30E94910487FD17C004
:1000F00020E030E040E85FE3C701B6010E94E90577
:1001000087FD10C020E030E040E450E4C701B601B4
:100110000E94910487FF06C08BE091E005C086E055
:1001200091E002C080E191E0FF90EF90DF90CF90EE
:100130000895CF92DF92EF92FF921F93CF93DF93B8
:100140006B017C01EA010E940805862F1AE0612FED
:100150000E945B06905D98838EE2898320E030E008
:1001600040E251E4C701B6010E94EE050E94080575
:10017000862F612F0E945B06905D9A83DF91CF915D
:100180001F91FF90EF90DF90CF900895F8948FEF3C
:1001900084B998EF91B987B987EF8AB98DB3836035
:1001A0008DBBE9E6F0E080818D608083E8E6F0E0D9
:1001B000808181608083EBE6F0E0808187608083CE
:1001C000789408951F920F920FB60F9211242F93D7
:1001D0003F934F935F936F937F938F939F93AF93CF
:1001E000BF93EF93FF93009B04C085B5856085BDE9
:1001F00010C085B585BD66B570E080E090E00E94D6
:100200003705609355017093560180935701909381
:10021000580116BC8BB38BBBFF91EF91BF91AF918F
:100220009F918F917F916F915F914F913F912F910E
:100230000F900FBE0F901F901895CF93DF93EC0196
:10024000CB01188219821A821B825D834C83188627
:100250001986BA010E94DF034C815D8160E081E074
:100260000E94970380E190E00E9481069F838E8325
:10027000DF91CF910895FC01868197810C94190735
:100280001F93CF93DF93EC01162F2C813D81462FD6
:100290006B8181E00E949F031A83DF91CF911F91B0
:1002A00008951F93CF93DF93EC01162F2C813D818E
:1002B0004A8181E00E949F031B83DF91CF911F91B0
:1002C0000895FC01862F603240F46183648175815A
:1002D000803108F0805D0C94D2030895CF93DF93B2
:1002E000EC018C819D810E948B0318826981CE0173
:1002F000DF91CF910C9461016F927F928F929F92C8
:10030000AF92BF92CF92DF92EF92FF920F931F9323
:10031000CF93DF936115710509F476C0E22EF42EB8
:100320008B01EC01CB010E94FC026C017A808B8076
:1003300060E0CE010E94400160E0CE010E945101C8
:10034000EE2019F0CE010E946E012FE12F1508F466
:100350005BC04F2D50E0C601992720E230E0241BFE
:10036000350B281739070CF44FC09C2C6C817D810C
:10037000EFE0EF1548F1840F951F409724F080E1DE
:10038000E82EEF1801C0EC2C8F2D0E94D203602EB6
:1003900058016C817D818A2D86198E1530F4F50106
:1003A00081915F010E94D903F4CF80E40E94D203BF
:1003B000E914E0F46C817D81F801EE0DF11D80817E
:1003C0000E94D903E394F4CF80E38F0D0E94D203FF
:1003D000E02E58018A2D8E19891540F46C817D819B
:1003E000F50181915F010E94D903F4CF6981CE01AB
:1003F0000E946101672DCE010E944001682DCE014F
:100400000E945101FC0CF882DF91CF911F910F9156
:10041000FF90EF90DF90CF90BF90AF909F908F9024
:100420007F906F900895EF92FF920F931F93CF9359
:10043000DF938C016830D0F441155105B9F0EA0121
:10044000862FF80164817581880F880F880F0E94BC
:10045000CA037E01F8E0EF0EF11CF801648175819A
:1004600089910E94D903CE15DF05B9F7DF91CF91AD
:100470001F910F91FF90EF900895CF93DF93EC01C0
:100480006115710521F020E048810E947C01CE01B8
:10049000DF91CF9108950F931F93CF93DF9300D0F7
:1004A000CDB7DEB78C011A8219826983BE016F5FF6
:1004B0007F4F0E943D02C8010F900F90DF91CF91B6
:1004C0001F910F910895CF93DF93EC017F936F936A
:1004D00085E191E09F938F938F818F938E818F938E
:1004E0000E94A2076E817F81CE010E943D020F9083
:1004F0000F900F900F900F900F90CE01DF91CF9142
:100500000895CF93DF93EC017F936F9388E191E09F
:100510009F938F938F818F938E818F930E94A207D9
:100520006E817F81CE010E943D020F900F900F904F
:100530000F900F900F90CE01DF91CF910895CF9340
:10054000DF93EC011F926F938BE191E09F938F9368
:100550008F818F938E818F930E94A2076E817F81FE
:10056000CE010E943D020F900F900F900F900F90C0
:100570000F90CE01DF91CF9108950F931F93CF93EA
:10058000DF93EC018B016115710561F0288581E035
:1005900028274985CE010E947C018885882311F097
:1005A00018861986C801DF91CF911F910F91089588
:1005B000603220F4FC01618721E0208708950F93C9
:1005C0001F93CF93DF93EC018881082F681708F4FD
:1005D000062F801B888310E0101731F060E2CE01F7
:1005E0000E944B021F5FF8CF8881811B8883DF91B7
:1005F000CF911F910F910895FC0131969F01281B07
:10060000390B41914111FACFC90108950F931F93FE
:10061000CF93DF93FC01CB011786009739F08F0150
:10062000015F1F4F2EE0C42FD0E007C080E3868714
:10063000CF010E9615C0222371F0BE010E946706FD
:10064000DC01A25EBE4F8C91D8018E938D012150AA
:10065000CB01009781F7822F90E001968E0F9F1FAC
:10066000DF91CF911F910F91089520E030E028177E
:10067000390749F0E9EFF0E03197F1F700C00000E9
:100680002F5F3F4FF4CF0895FC018081806280830B
:1006900084E08A95F1F780818F7D80830895EF92C1
:1006A000FF920F931F93CF93DF93162F042FE9012F
:1006B00090E8899F70011124888181728883288144
:1006C000862F90E034E0959587953A95E1F7880F6D
:1006D000991F8E29822B8883CE010E944403888132
:1006E0008172888388811F70110F1E29182B18832F
:1006F000CE010E94440380E0801731F093E09A9588
:10070000F1F700008F5FF8CFDF91CF911F910F912C
:10071000FF90EF9008959C0144EA61E080E00C9422
:100720004F039C0144EA62E080E00C944F039A017D
:10073000880F6460682B44E080E00C944F03660FE0
:100740004860462B54E0859FC0011124642F682B1C
:1007500044E080E00C944F039A0144E0649FB001B0
:100760001124606148E0849FC0011124682B44E09B
:1007700080E00C944F039A0148E0649FB00111247B
:10078000606240E1849FC0011124682B44E080E056
:100790000C944F039B018F77682F606444E080E0E6
:1007A0000C944F039B01682F606844E080E00C9438
:1007B0004F039B0144E0682F81E00C944F03CF93DB
:1007C000DF93FC01EB0185EA9EE00197F1F700C0A1
:1007D000000080818172808380818FEF8083888197
:1007E0008172888388818660888388818E7F8883F0
:1007F000CB010E94440380E094E00197F1F700C030
:100800000000CE010E94440391E29A95F1F70000A6
:10081000CE010E9444038DE08A95F1F700008881A3
:1008200081728883888184608883CE010E9444031A
:100830009DE09A95F1F700009E0144E06CE280E0B3
:100840000E944F039E0140E060E080E00E949F0311
:10085000CE010E948B03AE0160E081E00E9497030D
:100860009E0140E060E081E0DF91CF910C949F0316
:100870000E94C60080916B00816080936B00289A73
:100880008AE18A95F1F700C028980099FECF60911F
:10089000550170915601809157019091580120E0C7
:1008A00030E048E652E40E94960460935101709350
:1008B00052018093530190935401609151017091C2
:1008C000520180915301909154014CE451E00E94F7
:1008D000990020E040E06CE471E080E391E00E9448
:1008E0007C0160915101709152018091530190916E
:1008F00054010E946A00EC0160E180E391E00E94F3
:10090000D802BE010E94BD02B5CF45E250E064E2CC
:1009100070E080E391E00C941D0180E391E00C9481
:100920003B010E94740508F481E008950E94AA0426
:100930000C94AF050E94A80558F00E94A10540F054
:1009400029F45F3F29F00C94980551110C94E305AC
:100950000C949E050E94C00568F39923B1F35523BA
:1009600091F3951B550BBB27AA27621773078407C2
:1009700038F09F5F5F4F220F331F441FAA1FA9F358
:1009800035D00E2E3AF0E0E832D091505040E69546
:10099000001CCAF72BD0FE2F29D0660F771F881FA7
:1009A000BB1F261737074807AB07B0E809F0BB0B9A
:1009B000802DBF01FF2793585F4F3AF09E3F5105AE
:1009C00078F00C9498050C94E3055F3FE4F3983EAF
:1009D000D4F3869577956795B795F7959F5FC9F797
:1009E000880F911D9695879597F90895E1E0660F18
:1009F000771F881FBB1F621773078407BA0720F091
:100A0000621B730B840BBA0BEE1F88F7E0950895F9
:100A10000E94C80588F09F5798F0B92F9927B751C1
:100A2000B0F0E1F0660F771F881F991F1AF0BA9592
:100A3000C9F714C0B13091F00E94E205B1E0089509
:100A40000C94E205672F782F8827B85F39F0B93FFB
:100A5000CCF3869577956795B395D9F73EF4909545
:100A60008095709561957F4F8F4F9F4F0895E894C3
:100A700009C097FB3EF490958095709561957F4FE6
:100A80008F4F9F4F9923A9F0F92F96E9BB27939594
:100A9000F695879577956795B795F111F8CFFAF4A4
:100AA000BB0F11F460FF1BC06F5F7F4F8F4F9F4FD5
:100AB00016C0882311F096E911C0772321F09EE833
:100AC000872F762F05C0662371F096E8862F70E099
:100AD00060E02AF09A95660F771F881FDAF7880F73
:100AE0009695879597F90895990F0008550FAA0BC9
:100AF000E0E8FEEF16161706E807F907C0F0121631
:100B00001306E407F50798F0621B730B840B950B33
:100B100039F40A2661F0232B242B252B21F4089588
:100B20000A2609F4A140A6958FEF811D811D089525
:100B300097F99F6780E870E060E008959FEF80EC90
:100B4000089500240A941616170618060906089533
:100B500000240A9412161306140605060895092E99
:100B60000394000C11F4882352F0BB0F40F4BF2B08
:100B700011F460FF04C06F5F7F4F8F4F9F4F089548
:100B800057FD9058440F551F59F05F3F71F047953E
:100B9000880F97FB991F61F09F3F79F08795089523
:100BA000121613061406551FF2CF4695F1DF08C042
:100BB000161617061806991FF1CF8695710561055F
:100BC00008940895E894BB2766277727CB0197F907
:100BD00008950E94740508F48FEF08950E9401069D
:100BE0000C94AF050E94A10538F00E94A80520F0E2
:100BF000952311F00C9498050C949E0511240C94E7
:100C0000E3050E94C00570F3959FC1F3950F50E076
:100C1000551F629FF001729FBB27F00DB11D639FAE
:100C2000AA27F00DB11DAA1F649F6627B00DA11D54
:100C3000661F829F2227B00DA11D621F739FB00DFA
:100C4000A11D621F839FA00D611D221F749F33276A
:100C5000A00D611D231F849F600D211D822F762F03
:100C60006A2F11249F5750409AF0F1F088234AF0E0
:100C7000EE0FFF1FBB1F661F771F881F915050404C
:100C8000A9F79E3F510580F00C9498050C94E3055C
:100C90005F3FE4F3983ED4F3869577956795B795D3
:100CA000F795E7959F5FC1F7FE2B880F911D9695ED
:100CB000879597F90895991B79E004C0991F9617B5
:100CC00008F0961B881F7A95C9F780950895AA1B8E
:100CD000BB1B51E107C0AA1FBB1FA617B70710F027
:100CE000A61BB70B881F991F5A95A9F78095909559
:100CF000BC01CD010895EE0FFF1F0590F491E02D8A
:100D000009940F931F93CF93DF938230910510F4D2
:100D100082E090E0E0915B01F0915C0120E030E046
:100D2000A0E0B0E0309719F1408151810281138138
:100D300048175907C8F08417950769F4109731F0E0
:100D400012960C93129713961C9327C000935B0185
:100D500010935C0122C02115310519F04217530789
:100D600018F49A01BD01EF01DF01F801DBCF211575
:100D70003105F9F0281B390B2430310580F48A81C4
:100D80009B816115710521F0FB019383828304C06F
:100D900090935C0180935B01FE01329644C0FE019A
:100DA000E20FF31F819391932250310939832883F5
:100DB0003AC02091590130915A01232B41F42091DE
:100DC00002013091030130935A012093590120917F
:100DD0000001309101012115310541F42DB73EB7D5
:100DE0004091040150910501241B350BE0915901FC
:100DF000F0915A01E217F307A0F42E1B3F0B2817BE
:100E0000390778F0AC014E5F5F4F2417350748F083
:100E10004E0F5F1F50935A01409359018193919354
:100E200002C0E0E0F0E0CF01DF91CF911F910F9180
:100E30000895CF93DF93009709F481C0FC013297A6
:100E400013821282A0915B01B0915C01109781F432
:100E500020813181820F931F2091590130915A01D5
:100E60002817390751F5F0935A01E093590167C0EB
:100E7000ED0120E030E0CE17DF0740F44A815B81CE
:100E80009E0141155105F1F0EA01F5CFD383C283EC
:100E900040815181840F951FC817D90759F4888163
:100EA0009981840F951F0296918380838A819B810B
:100EB000938382832115310529F4F0935C01E0933B
:100EC0005B013DC0E901FB83EA8349915991C40F5D
:100ED000D51FEC17FD0761F480819181840F951F68
:100EE0000296E90199838883828193819B838A8317
:100EF000E0E0F0E012968D919C911397009719F025
:100F0000FD01DC01F7CF8D919C9111979D012E5F22
:100F10003F4F820F931F2091590130915A0128179A
:100F2000390769F4309729F410925C0110925B0143
:100F300002C013821282B0935A01A0935901DF912B
:100F4000CF910895AEE0B0E0E8EAF7E00C94630AD0
:100F50000D891E8986E08C831A8309838FEF9FE7B2
:100F60009E838D83AE01475E5F4F6F89788DCE0182
:100F700001960E94C407EF81F885E00FF11F1082EF
:100F80002E96E4E00C947F0AABE0B0E0EAECF7E0E8
:100F90000C94550A6C017B018A01FC0117821682B0
:100FA000838181FFCCC1CE0101963C01F601938182
:100FB000F70193FD859193FF81917F01882309F4C7
:100FC000BAC1853239F493FD859193FF81917F01F8
:100FD000853229F4B60190E00E94BB09E7CF912C3D
:100FE000212C312CFFE1F315D8F08B3279F038F455
:100FF000803279F08332A1F4232D20611DC08D321F
:1010000061F0803369F4232D216016C0832D826046
:10101000382EE32DE4603E2E2AC0F32DF8601DC06B
:1010200037FC2DC020ED280F2A3040F08E32B9F465
:1010300036FC81C1232D2064322E19C036FE06C035
:101040008AE0989E200D1124922E11C0EAE02E9E77
:10105000200D1124222EF32DF0623F2E08C08C3675
:1010600021F4832D8068382E02C0883641F4F701C0
:1010700093FD859193FF81917F018111B3CF982FCB
:101080009F7D9554933028F40C5F1F4F9FE3998305
:101090000DC0833631F0833771F0833509F059C0C4
:1010A00021C0F801808189830E5F1F4F88248394BB
:1010B000912C530113C02801F2E04F0E511CF8018E
:1010C000A080B18036FE03C0692D70E002C06FEFD2
:1010D0007FEFC5010E94B0094C018201F32DFF771B
:1010E0003F2E16C0280122E0420E511CF801A080BC
:1010F000B18036FE03C0692D70E002C06FEF7FEF54
:10110000C5010E94A5094C01F32DF0683F2E820114
:1011100033FC1BC0822D90E088169906B0F4B6010E
:1011200080E290E00E94BB092A94F4CFF50137FCDD
:10113000859137FE81915F01B60190E00E94BB0965
:1011400021102A9421E0821A91088114910471F7E8
:10115000E8C0843611F0893641F5F80137FE07C042
:1011600060817181828193810C5F1F4F08C0608113
:101170007181072E000C880B990B0E5F1F4FF32D0A
:10118000FF763F2E97FF09C09095809570956195E9
:101190007F4F8F4F9F4FF0683F2E2AE030E0A30132
:1011A0000E94F709882E861845C0853731F4232D13
:1011B0002F7EB22E2AE030E025C0932D997FB92EE4
:1011C0008F36C1F018F4883579F0B5C0803719F042
:1011D000883721F0B0C0E92FE061BE2EB4FE0DC00B
:1011E000FB2DF460BF2E09C034FE0AC0292F2660F3
:1011F000B22E06C028E030E005C020E130E002C099
:1012000020E132E0F801B7FE07C060817181828180
:1012100093810C5F1F4F06C06081718180E090E078
:101220000E5F1F4FA3010E94F709882E8618FB2D21
:10123000FF773F2E36FE0DC0232D2E7FA22E891460
:1012400058F434FE0BC032FC09C0832D8E7EA82ECC
:1012500005C0B82CA32C03C0B82C01C0B92CA4FE27
:101260000FC0FE01E80DF11D8081803321F49A2D1D
:10127000997EA92E09C0A2FE06C0B394B39404C0FF
:101280008A2D867809F0B394A3FC11C0A0FE06C095
:10129000B21488F4280C922C9B180EC0B21460F47F
:1012A000B60180E290E00E94BB09B394F7CFB2147C
:1012B00018F42B1802C0982C212CA4FE10C0B601E3
:1012C00080E390E00E94BB09A2FE17C0A1FC03C00E
:1012D00088E790E002C088E590E0B6010CC08A2D56
:1012E000867859F0A1FE02C08BE201C080E2A7FC23
:1012F0008DE2B60190E00E94BB09891438F4B60172
:1013000080E390E00E94BB099A94F7CF8A94F3019E
:10131000E80DF11D8081B60190E00E94BB098110AB
:10132000F5CF222009F442CEB60180E290E00E947F
:10133000BB092A94F6CFF6018681978102C08FEF10
:101340009FEF2B96E2E10C94710AFC01059061502D
:1013500070400110D8F7809590958E0F9F1F0895CB
:10136000FC016150704001900110D8F78095909574
:101370008E0F9F1F08950F931F93CF93DF93FB0151
:10138000238121FD03C08FEF9FEF2CC022FF16C0E9
:1013900046815781248135814217530744F4A08147
:1013A000B1819D012F5F3F4F318320838C93268134
:1013B00037812F5F3F4F3783268314C08B01EC01A9
:1013C000FB010084F185E02D0995892BE1F6D80118
:1013D00016968D919C911797019617969C938E93D4
:1013E0001697CE01DF91CF911F910F910895FA01C9
:1013F000AA27283051F1203181F1E8946F936E7F54
:101400006E5F7F4F8F4F9F4FAF4FB1E03ED0B4E044
:101410003CD0670F781F891F9A1FA11D680F791F85
:101420008A1F911DA11D6A0F711D811D911DA11D96
:1014300020D009F468943F912AE0269F11243019A6
:10144000305D3193DEF6CF010895462F4770405D41
:101450004193B3E00FD0C9F7F6CF462F4F70405DF0
:101460004A3318F0495D31FD4052419302D0A9F74B
:10147000EACFB4E0A6959795879577956795BA9545
:10148000C9F700976105710508959B01AC010A2E0B
:1014900006945795479537952795BA95C9F7620FE2
:1014A000731F841F951FA01D08952F923F924F9286
:1014B0005F926F927F928F929F92AF92BF92CF92E4
:1014C000DF92EF92FF920F931F93CF93DF93CDB7ED
:1014D000DEB7CA1BDB0B0FB6F894DEBF0FBECDBF65
:1014E00009942A88398848885F846E847D848C8436
:1014F0009B84AA84B984C884DF80EE80FD800C813F
:101500001B81AA81B981CE0FD11D0FB6F894DEBF21
:101510000FBECDBFED01089510E0CFE3D0E004C0D1
:10152000FE010E947B062196C034D107C9F7F894CA
:02153000FFCFEB
:1015320000005D012000444E4752004154544E00C9
:10154200204F4B20002575002569002563003031AE
:101552003233343536373839616263646566000088
:00000001FF
