:100000000C943E000C945B000C945B000C945B0021
:100010000C945B000C945B000C945B000C945B00F4
:100020000C945B000C945B000C948E000C945B00B1
:100030000C945B000C945B000C945B000C945B00D4
:100040000C945B000C945B000C945B000C945B00C4
:100050000C945B000C945B000C945B000C945B00B4
:100060000C945B000C945B000C945B000C945B00A4
:100070000C945B000C945B000C945B0011241FBE7D
:10008000CFEFD8E0DEBFCDBF11E0A0E0B1E0E4E506
:10009000F2E002C005900D92AC30B107D9F721E033
:1000A000ACE0B1E001C01D92AF30B207E1F70E94B1
:1000B00000010C9428010C940000E1EBF0E0808139
:1000C000866080831092B20010920E0110920D0192
:1000D0007894089580910D0190910E01019690936E
:1000E0000E0180930D01089580910D0190910E01F4
:1000F000089510920E0110920D010895E0E7F0E0CE
:1001000080818160808310920E0110920D0108950C
:10011000E0E7F0E080818150808308951F920F9284
:100120000FB60F9211242F933F934F935F936F93CA
:100130007F938F939F93AF93BF93EF93FF938091A0
:100140000D0190910E01059718F40E946A0004C0F9
:1001500010920E0110920D0120910D0130910E01AF
:100160002D5F3F4F81E090E001C0880F2A95EAF7AC
:1001700082B9FF91EF91BF91AF919F918F917F9144
:100180006F915F914F913F912F910F900FBE0F9004
:100190001F901895DC011C9211961C9211978AE011
:1001A00012968C93129713961C92139714961C9286
:1001B00014978BE0E0E0F1E0159601900D928A959E
:1001C000E1F708950895860F911DFC01408308957D
:1001D000FC01E60FF11D2081FC01E20FF11D85817C
:1001E00088B90895FC01862F2AE0622F0E941C0125
:1001F00080839183842F0E941C01838394830895BC
:10020000CF93DF93CDB7DEB760970FB6F894DEBF1C
:100210000FBECDBF8FEF81B984B987B98AB9CE013E
:1002200001960E94CA000E947E0044E16FE0CE0168
:1002300001960E94F200FFCF991B79E004C0991F3C
:10024000961708F0961B881F7A95C9F78095089530
:04025000F894FFCF50
:0C0254007E0CB69ECCDAFA0EFEDE8000B6
:00000001FF
