:100000000C9440000C9468000C9468000C946800F8
:100010000C9468000C9468000C9468000C946800C0
:100020000C9468000C946A000C9468000C946800AE
:100030000C9468000C9468000C9468000C946800A0
:100040000C9468000C9468000C9468000C94680090
:100050000C9468000C9468000C9468000C94680080
:100060000C9468000C9468000C9468000C94680070
:100070000C9468000C9468000C94680039013D01F0
:1000800011241FBECFEFD8E0DEBFCDBF11E0A0E04E
:10009000B1E0E0ECF2E002C005900D92A631B107AC
:1000A000D9F721E0A6E1B1E001C01D92A433B20767
:1000B000E1F710E0CFE3D0E004C02197FE010E94F9
:1000C0004D01CE33D107C9F70E940E010C945301A4
:1000D0000C9400001F920F920FB60F9211242F93D1
:1000E0003F934F935F936F937F938F939F93AF93C0
:1000F000BF93EF93FF93F894809118018F5F8093E3
:10010000180180911801853010F01092180160914B
:10011000180189E191E00E94E2007894FF91EF914B
:10012000BF91AF919F918F917F916F915F914F910F
:100130003F912F910F900FBE0F901F901895CF9366
:10014000DF93F894A0EBB0E01C92C1EBD0E01882F2
:10015000E0E7F0E010828081826080838C9180648F
:100160008C931092B20081E08093B30086E0888384
:100170008081826080837894DF91CF910895CF93BE
:10018000DF93EC018AE0E0E0F1E0DE0101900D9206
:100190008A95E1F71A861B868AE08C871D861E8663
:1001A0008BE0EAE0F1E0DE011F9601900D928A9566
:1001B000E1F7DF91CF9108950895860F911DFC011D
:1001C0004287089518B822B1286F22B970E0FC0167
:1001D000E60FF71F2285FC01E20FF11D2785660F50
:1001E000771FFC01E60FF71F808182B928B90895B7
:1001F000FC01862F2AE0622F0E94410182879387AB
:10020000842F0E944101858796870895FC018AE02A
:100210008287838784878587868708958FEF81B952
:1002200084B987B98AB987E191E00E949F0089E18A
:1002300091E00E9406012FEF8DE399E42150804068
:100240009040E1F700C00000C0E0D0E04D2F6C2FDF
:1002500089E191E00E94F8008FE19EE40197F1F7B7
:1002600000C00000DF5FD43689F7CF5FC436F9F2F3
:10027000ECCF89E191E00C94BF0089E191E00C940E
:10028000DC00991B79E004C0991F961708F0961BB3
:10029000881F7A95C9F780950895EE0FFF1F059086
:1002A000F491E02D099410E0CFE3D0E004C0FE010A
:1002B0000E944D012196C034D107C9F7F894FFCFB1
:1002C000F000E800D800B8007800FC60DAF266B60A
:0602D000BEE0FEF6020094
:00000001FF
