:100000000C943E000C945B000C945B000C945B0021
:100010000C945B000C945B000C945B000C945B00F4
:100020000C945B000C945B000C945B000C945B00E4
:100030000C945B000C945B000C945B000C945B00D4
:100040000C945B000C945B000C945B000C945B00C4
:100050000C945B000C945B000C945B000C945B00B4
:100060000C945B000C945B000C945B000C945B00A4
:100070000C945B000C945B000C945B0011241FBE7D
:10008000CFEFD8E0DEBFCDBF11E0A0E0B1E0EAE9FC
:10009000F2E002C005900D92AA32B107D9F721E033
:1000A000AAE2B1E001C01D92AB32B207E1F70E94B3
:1000B000DA000C944B010C94000080E04A9B0895F8
:1000C00081E0FCCF8AEA88B985B982B9089585E5CF
:1000D00088B985B982B9089518B815B812B80895C5
:1000E0008F929F92AF92BF92CF92DF92EF92FF9248
:1000F0004B015C01C12CD12C7601C814D904EA044F
:10010000FB04B1F00E9467008FE496E40197F1F7D9
:1001100000C000000E9462008FEC97E00197F1F7A9
:1001200000C000009FEFC91AD90AE90AF90AE5CF11
:10013000FF90EF90DF90CF90BF90AF909F908F9007
:10014000089561E070E080E090E00E9470000C94FF
:100150006C001092C5008FEC8093C400E0ECF0E0DE
:100160008081806C808388E18093C10086E08093E9
:10017000C20008958091C00085FFFCCF6093C60047
:100180000895EF92FF920F931F93CF938C017B0101
:10019000C0E0F701EC0FF11D6081662329F0C80172
:1001A0000E94BA00CF5FF5CFCF911F910F91FF90C2
:1001B000EF9008958FEF81B984B987B98BEF8AB931
:1001C0008AE291E00E94A9000E9462004A9B55C009
:1001D00060E071E08AE291E00E94C1008FE19EE45C
:1001E0000197F1F700C0000061E070E080E090E06E
:1001F0000E9470004A99F8CF67E071E08AE291E0CE
:100200000E94C1000E9467004A9B3EC06DE071E001
:100210008AE291E00E94C1008FE19EE40197F1F72C
:1002200000C000000E9462004A99F6CF64E171E0CC
:100230008AE291E00E94C1008FE19EE40197F1F70C
:1002400000C000000E946C004A9BF6CF6AE171E09A
:100250008AE291E00E94C1008FE19EE40197F1F7EC
:1002600000C000000E9467004A99FCCF61E271E083
:100270008AE291E00E94C100A7CF8FE19EE401973E
:10028000F1F700C00000A0CF8FE19EE40197F1F7E5
:0A02900000C00000B7CFF894FFCFC4
:10029A00707573683120006F66663120007075735F
:1002AA00683220006F6666322000707573683320EA
:0A02BA0000696E697469616C200030
:00000001FF
