:100000000C943E000C945B000C945B000C945B0021
:100010000C945B000C945B000C945B000C945B00F4
:100020000C945B000C945B000C945B000C945B00E4
:100030000C945B000C945B000C945B000C945B00D4
:100040000C945B000C945B000C945B000C945B00C4
:100050000C945B000C945B000C945B000C945B00B4
:100060000C945B000C945B000C945B000C945B00A4
:100070000C945B000C945B000C945B0011241FBE7D
:10008000CFEFD8E0DEBFCDBF11E0A0E0B1E0E0EB04
:10009000F0E102C005900D92A032B107D9F721E03E
:1000A000A0E2B1E001C01D92A532B207E1F70E94C3
:1000B0000B040C9456080C940000289A8AE18A9547
:1000C000F1F700C085B185B916BC85B5826085BDE4
:1000D000009B03C086B58436D8F385B585BD86B54B
:1000E00090E0089580E04A9B02C081E0FCCF089533
:1000F0008AEA88B985B982B9089585E588B985B94C
:1001000082B9089518B815B812B808958F929F92C1
:10011000AF92BF92CF92DF92EF92FF924B015C01C0
:10012000C12CD12C7601C814D904EA04FB04B1F027
:100130000E947D008FE496E40197F1F700C0000073
:100140000E9478008FEC97E00197F1F700C0000063
:100150009FEFC91AD90AE90AF90AE5CFFF90EF9093
:10016000DF90CF90BF90AF909F908F90089561E007
:1001700070E080E090E00E9486000C948200CF93B3
:10018000DF93EC01CB01188219821A821B825D83F6
:100190004C8318861986BA010E9481034C815D81C7
:1001A00060E081E00E94390380E190E00E944B040E
:1001B0009F838E83DF91CF910895FC018681978183
:1001C0000C94E3041F93CF93DF93EC01162F2C8143
:1001D0003D81462F6B8181E00E9441031A83DF91AC
:1001E000CF911F9108951F93CF93DF93EC01162FAA
:1001F0002C813D814A8181E00E9441031B83DF9174
:10020000CF911F910895FC01862F603240F46183E5
:1002100064817581803108F0805D0C9474030895C9
:10022000CF93DF93EC018C819D810E942D03188276
:100230006981CE01DF91CF910C9403016F927F927F
:100240008F929F92AF92BF92CF92DF92EF92FF92E6
:100250000F931F93CF93DF936115710509F476C057
:10026000E22EF42E8B01EC01CB010E949E026C0168
:100270007A808B8060E0CE010E94E20060E0CE01D7
:100280000E94F300EE2019F0CE010E9410012FE130
:100290002F1508F45BC04F2D50E0C601992720E2CE
:1002A00030E0241B350B281739070CF44FC09C2C69
:1002B0006C817D81EFE0EF1548F1840F951F409729
:1002C00024F080E1E82EEF1801C0EC2C8F2D0E9465
:1002D0007403602E58016C817D818A2D86198E15DC
:1002E00030F4F50181915F010E947B03F4CF80E43B
:1002F0000E947403E914E0F46C817D81F801EE0D35
:10030000F11D80810E947B03E394F4CF80E38F0D85
:100310000E947403E02E58018A2D8E19891540F42D
:100320006C817D81F50181915F010E947B03F4CF97
:100330006981CE010E940301672DCE010E94E20077
:10034000682DCE010E94F300FC0CF882DF91CF9162
:100350001F910F91FF90EF90DF90CF90BF90AF90E3
:100360009F908F907F906F900895EF92FF920F93E0
:100370001F93CF93DF938C016830D0F44115510562
:10038000B9F0EA01862FF80164817581880F880F22
:10039000880F0E946C037E01F8E0EF0EF11CF8015B
:1003A0006481758189910E947B03CE15DF05B9F7C1
:1003B000DF91CF911F910F91FF90EF900895CF9310
:1003C000DF93EC016115710521F020E048810E9466
:1003D0001E01CE01DF91CF9108950F931F93CF930C
:1003E000DF9300D0CDB7DEB78C011A821982698302
:1003F000BE016F5F7F4F0E94DF01C8010F900F9019
:10040000DF91CF911F910F910895CF93DF93EC016E
:100410007F936F9386E091E09F938F938F818F936B
:100420008E818F930E946C056E817F81CE010E9428
:10043000DF010F900F900F900F900F900F90CE0153
:10044000DF91CF910895CF93DF93EC017F936F936A
:1004500089E091E09F938F938F818F938E818F930B
:100460000E946C056E817F81CE010E94DF010F909A
:100470000F900F900F900F900F90CE01DF91CF91C2
:100480000895CF93DF93EC011F926F938CE091E07E
:100490009F938F938F818F938E818F930E946C0592
:1004A0006E817F81CE010E94DF010F900F900F902F
:1004B0000F900F900F90CE01DF91CF9108950F9381
:1004C0001F93CF93DF93EC018B016115710561F0F0
:1004D000288581E028274985CE010E941E01888554
:1004E000882311F018861986C801DF91CF911F91DA
:1004F0000F910895603220F4FC01618721E020878C
:1005000008950F931F93CF93DF93EC018881082FF9
:10051000681708F4062F801B888310E0101731F04D
:1005200060E2CE010E94ED011F5FF8CF8881811B40
:100530008883DF91CF911F910F910895FC0131962F
:100540009F01281B390B41914111FACFC901089530
:100550000F931F93CF93DF93FC01CB011786009776
:1005600039F08F01015F1F4F2EE0C42FD0E007C08C
:1005700080E38687CF010E9615C0222371F0BE015D
:100580000E943704DC01A15FBE4F8C91D8018E938D
:100590008D012150CB01009781F7822F90E00196C9
:1005A0008E0F9F1FDF91CF911F910F91089520E033
:1005B00030E02817390749F0E9EFF0E03197F1F71B
:1005C00000C000002F5F3F4FF4CF0895FC018081F1
:1005D0008062808384E08A95F1F780818F7D8083BB
:1005E0000895EF92FF920F931F93CF93DF93162FEF
:1005F000042FE90190E8899F70011124888181729C
:1006000088832881862F90E034E0959587953A95E8
:10061000E1F7880F991F8E29822B8883CE010E94D3
:10062000E60288818172888388811F70110F1E29DC
:10063000182B1883CE010E94E60280E0801731F06B
:1006400093E09A95F1F700008F5FF8CFDF91CF919B
:100650001F910F91FF90EF9008959C0144EA61E093
:1006600080E00C94F1029C0144EA62E080E00C948A
:10067000F1029A01880F6460682B44E080E00C94DA
:10068000F102660F4860462B54E0859FC00111249B
:10069000642F682B44E080E00C94F1029A0144E05E
:1006A000649FB0011124606148E0849FC00111245F
:1006B000682B44E080E00C94F1029A0148E0649FCA
:1006C000B0011124606240E1849FC0011124682BB5
:1006D00044E080E00C94F1029B018F77682F606406
:1006E00044E080E00C94F1029B01682F606844E0D4
:1006F00080E00C94F1029B0144E0682F81E00C94AF
:10070000F102CF93DF93FC01EB0185EA9EE00197B4
:10071000F1F700C0000080818172808380818FEFBB
:1007200080838881817288838881866088838881BC
:100730008E7F8883CB010E94E60280E094E00197DF
:10074000F1F700C00000CE010E94E60291E29A9506
:10075000F1F70000CE010E94E6028DE08A95F1F7E4
:100760000000888181728883888184608883CE01BB
:100770000E94E6029DE09A95F1F700009E0144E098
:100780006CE280E00E94F1029E0140E060E080E0C7
:100790000E944103CE010E942D03AE0160E081E082
:1007A0000E9439039E0140E060E081E0DF91CF913B
:1007B0000C9441031092C5008FEC8093C400E0ECD0
:1007C000F0E08081806C808388E18093C10086E0C6
:1007D0008093C20008958091C00085FFFCCF609394
:1007E000C6000895EF92FF920F931F93CF938C0151
:1007F0007B01C0E0F701EC0FF11D6081662329F059
:10080000C8010E94EB03CF5FF5CFCF911F910F91ED
:10081000FF90EF900895CF93DF93CDB7DEB72A977F
:100820000FB6F894DEBF0FBECDBF8FEF81B984B98C
:1008300087B98BEF8AB980E291E00E94DA0345E242
:1008400050E064E270E0CE0101960E94BF000E9479
:100850005D00889710F461E601C062E6CE01019662
:100860000E94ED01CE0101960E94DD00E8CFAA1B97
:10087000BB1B51E107C0AA1FBB1FA617B70710F08B
:10088000A61BB70B881F991F5A95A9F780959095BD
:10089000BC01CD0108950F931F93CF93DF93823056
:1008A000910510F482E090E0E0912301F0912401A1
:1008B00020E030E0A0E0B0E0309719F140815181B4
:1008C0000281138148175907C8F08417950769F406
:1008D000109731F012960C93129713961C9327C021
:1008E000009323011093240122C02115310519F032
:1008F0004217530718F49A01BD01EF01DF01F80117
:10090000DBCF21153105F9F0281B390B24303105D7
:1009100080F48A819B816115710521F0FB0193832D
:10092000828304C09093240180932301FE013296B8
:1009300044C0FE01E20FF31F8193919322503109CD
:10094000398328833AC02091210130912201232B41
:1009500041F4209102013091030130932201209350
:10096000210120910001309101012115310541F44F
:100970002DB73EB74091040150910501241B350B62
:10098000E0912101F0912201E217F307A0F42E1B60
:100990003F0B2817390778F0AC014E5F5F4F2417E3
:1009A000350748F04E0F5F1F5093220140932101FD
:1009B0008193919302C0E0E0F0E0CF01DF91CF910D
:1009C0001F910F910895CF93DF93009709F481C091
:1009D000FC01329713821282A0912301B09124016D
:1009E000109781F420813181820F931F2091210182
:1009F000309122012817390751F5F0932201E09335
:100A0000210167C0ED0120E030E0CE17DF0740F4A0
:100A10004A815B819E0141155105F1F0EA01F5CF54
:100A2000D383C28340815181840F951FC817D90792
:100A300059F488819981840F951F02969183808350
:100A40008A819B81938382832115310529F4F09358
:100A50002401E09323013DC0E901FB83EA8349912E
:100A60005991C40FD51FEC17FD0761F48081918166
:100A7000840F951F0296E90199838883828193816F
:100A80009B838A83E0E0F0E012968D919C9113970E
:100A9000009719F0FD01DC01F7CF8D919C91119722
:100AA0009D012E5F3F4F820F931F209121013091B6
:100AB00022012817390769F4309729F4109224018C
:100AC0001092230102C013821282B0932201A093DC
:100AD0002101DF91CF910895AEE0B0E0E2E7F5E0CB
:100AE0000C942D080D891E8986E08C831A83098356
:100AF0008FEF9FE79E838D83AE01475E5F4F6F89C7
:100B0000788DCE0101960E948E05EF81F885E00F69
:100B1000F11F10822E96E4E00C944908ABE0B0E09F
:100B2000E4E9F5E00C941F086C017B018A01FC01EB
:100B300017821682838181FFCCC1CE0101963C01D0
:100B4000F6019381F70193FD859193FF81917F01D8
:100B5000882309F4BAC1853239F493FD859193FF56
:100B600081917F01853229F4B60190E00E948507CA
:100B7000E7CF912C212C312CFFE1F315D8F08B32EB
:100B800079F038F4803279F08332A1F4232D20619A
:100B90001DC08D3261F0803369F4232D216016C0B1
:100BA000832D8260382EE32DE4603E2E2AC0F32D83
:100BB000F8601DC037FC2DC020ED280F2A3040F012
:100BC0008E32B9F436FC81C1232D2064322E19C037
:100BD00036FE06C08AE0989E200D1124922E11C088
:100BE000EAE02E9E200D1124222EF32DF0623F2EDE
:100BF00008C08C3621F4832D8068382E02C08836D8
:100C000041F4F70193FD859193FF81917F0181115B
:100C1000B3CF982F9F7D9554933028F40C5F1F4FCE
:100C20009FE399830DC0833631F0833771F08335AC
:100C300009F059C021C0F801808189830E5F1F4FE0
:100C400088248394912C530113C02801F2E04F0EA5
:100C5000511CF801A080B18036FE03C0692D70E000
:100C600002C06FEF7FEFC5010E947A074C0182013D
:100C7000F32DFF773F2E16C0280122E0420E511CB3
:100C8000F801A080B18036FE03C0692D70E002C07B
:100C90006FEF7FEFC5010E946F074C01F32DF068E5
:100CA0003F2E820133FC1BC0822D90E088169906EE
:100CB000B0F4B60180E290E00E9485072A94F4CF58
:100CC000F50137FC859137FE81915F01B60190E017
:100CD0000E94850721102A9421E0821A910881142C
:100CE000910471F7E8C0843611F0893641F5F801B6
:100CF00037FE07C060817181828193810C5F1F4F35
:100D000008C060817181072E000C880B990B0E5F63
:100D10001F4FF32DFF763F2E97FF09C090958095CA
:100D2000709561957F4F8F4F9F4FF0683F2E2AE05F
:100D300030E0A3010E94C107882E861845C0853780
:100D400031F4232D2F7EB22E2AE030E025C0932DE2
:100D5000997FB92E8F36C1F018F4883579F0B5C077
:100D6000803719F0883721F0B0C0E92FE061BE2E3E
:100D7000B4FE0DC0FB2DF460BF2E09C034FE0AC0C6
:100D8000292F2660B22E06C028E030E005C020E101
:100D900030E002C020E132E0F801B7FE07C0608118
:100DA0007181828193810C5F1F4F06C060817181C8
:100DB00080E090E00E5F1F4FA3010E94C107882EC4
:100DC0008618FB2DFF773F2E36FE0DC0232D2E7F7C
:100DD000A22E891458F434FE0BC032FC09C0832DB6
:100DE0008E7EA82E05C0B82CA32C03C0B82C01C041
:100DF000B92CA4FE0FC0FE01E80DF11D80818033E7
:100E000021F49A2D997EA92E09C0A2FE06C0B394A2
:100E1000B39404C08A2D867809F0B394A3FC11C062
:100E2000A0FE06C0B21488F4280C922C9B180EC0A9
:100E3000B21460F4B60180E290E00E948507B3949A
:100E4000F7CFB21418F42B1802C0982C212CA4FE52
:100E500010C0B60180E390E00E948507A2FE17C093
:100E6000A1FC03C088E790E002C088E590E0B601ED
:100E70000CC08A2D867859F0A1FE02C08BE201C019
:100E800080E2A7FC8DE2B60190E00E9485078914FC
:100E900038F4B60180E390E00E9485079A94F7CF7A
:100EA0008A94F301E80DF11D8081B60190E00E9463
:100EB00085078110F5CF222009F442CEB60180E2E9
:100EC00090E00E9485072A94F6CFF60186819781EB
:100ED00002C08FEF9FEF2B96E2E10C943B08FC01E0
:100EE0000590615070400110D8F7809590958E0F55
:100EF0009F1F0895FC016150704001900110D8F7C8
:100F0000809590958E0F9F1F08950F931F93CF93F9
:100F1000DF93FB01238121FD03C08FEF9FEF2CC0E6
:100F200022FF16C04681578124813581421753071D
:100F300044F4A081B1819D012F5F3F4F3183208315
:100F40008C93268137812F5F3F4F3783268314C0D0
:100F50008B01EC01FB010084F185E02D0995892BC3
:100F6000E1F6D80116968D919C91179701961796E8
:100F70009C938E931697CE01DF91CF911F910F9185
:100F80000895FA01AA27283051F1203181F1E8941F
:100F90006F936E7F6E5F7F4F8F4F9F4FAF4FB1E06C
:100FA0003ED0B4E03CD0670F781F891F9A1FA11D67
:100FB000680F791F8A1F911DA11D6A0F711D811D68
:100FC000911DA11D20D009F468943F912AE0269F2D
:100FD00011243019305D3193DEF6CF010895462F8C
:100FE0004770405D4193B3E00FD0C9F7F6CF462F6D
:100FF0004F70405D4A3318F0495D31FD40524193D6
:1010000002D0A9F7EACFB4E0A69597958795779592
:101010006795BA95C9F700976105710508959B0119
:10102000AC010A2E06945795479537952795BA95A2
:10103000C9F7620F731F841F951FA01D08952F927B
:101040003F924F925F926F927F928F929F92AF9258
:10105000BF92CF92DF92EF92FF920F931F93CF93A5
:10106000DF93CDB7DEB7CA1BDB0B0FB6F894DEBF3C
:101070000FBECDBF09942A88398848885F846E8462
:101080007D848C849B84AA84B984C884DF80EE80AC
:10109000FD800C811B81AA81B981CE0FD11D0FB6B5
:1010A000F894DEBF0FBECDBFED010895F894FFCFD9
:1010B000000025012000257500256900256300300A
:1010C00031323334353637383961626364656600EE
:00000001FF
