:100000000C943E000C9450000C9450000C94500042
:100010000C9450000C9450000C9450000C94500020
:100020000C9450000C9450000C9450000C94500010
:100030000C9450000C9450000C9450000C94500000
:100040000C9450000C9450000C9450000C945000F0
:100050000C9450000C9450000C9450000C945000E0
:100060000C9450000C9450000C9450000C945000D0
:100070000C9450000C9450000C94500011241FBE9E
:10008000CFEFD8E0DEBFCDBF21E0A0E0B1E001C0FE
:100090001D92A130B207E1F70E94D0000C94130129
:1000A0000C94000080E04A9B02C081E0FCCF0895E0
:1000B0008AEA88B985B982B9089585E588B985B98C
:1000C00082B9089518B815B812B808958F929F9202
:1000D000AF92BF92CF92DF92EF92FF924B015C0101
:1000E000C12CD12C7601C814D904EA04FB04B1F068
:1000F0000E945D008FE496E40197F1F700C00000D4
:100100000E9458008FEC97E00197F1F700C00000C3
:100110009FEFC91AD90AE90AF90AE5CFFF90EF90D3
:10012000DF90CF90BF90AF909F908F90089561E047
:1001300070E080E090E00E9466000C9462001092F3
:10014000C5008FEC8093C400E0ECF0E08081806C0F
:10015000808388E18093C10086E08093C200089587
:100160008091C00085FFFCCF6093C6000895EF9298
:10017000FF920F931F93CF938C017B01C0E0F70197
:10018000EC0FF11D6081662329F0C8010E94B000C8
:10019000CF5FF5CFCF911F910F91FF90EF90089512
:1001A0008FEF81B984B987B98BEF8AB980E091E08C
:1001B0000E949F00C0E0C230F9F028F4CC2361F027
:1001C000C13089F0F8CFC43019F1E0F0C53099F7AB
:1001D0000E945D004A99FCCF0E945800C9B1C2FB41
:1001E000CC27C0F919C061E070E080E090E00E9487
:1001F00066004A99F8CFC2E00E945D004A9B0CC09D
:10020000C3E00AC00E9458004A9906C0C4E004C076
:100210000E9462004A99C5E08FE19EE40197F1F7E0
:0A02200000C00000C8CFF894FFCF23
:00000001FF
